{
  "_format": "hh-sol-artifact-1",
  "contractName": "UserHashRegistry",
  "sourceName": "contracts/UserHashRegistry.sol",
  "abi": [
    {
      "anonymous": false,
      "inputs": [
        {
          "indexed": true,
          "internalType": "address",
          "name": "user",
          "type": "address"
        },
        {
          "indexed": false,
          "internalType": "string",
          "name": "dataHash",
          "type": "string"
        }
      ],
      "name": "HashStored",
      "type": "event"
    },
    {
      "inputs": [
        {
          "internalType": "address",
          "name": "_user",
          "type": "address"
        }
      ],
      "name": "getHash",
      "outputs": [
        {
          "internalType": "string",
          "name": "",
          "type": "string"
        },
        {
          "internalType": "uint256",
          "name": "",
          "type": "uint256"
        }
      ],
      "stateMutability": "view",
      "type": "function"
    },
    {
      "inputs": [
        {
          "internalType": "string",
          "name": "_dataHash",
          "type": "string"
        }
      ],
      "name": "storeHash",
      "outputs": [],
      "stateMutability": "nonpayable",
      "type": "function"
    },
    {
      "inputs": [
        {
          "internalType": "address",
          "name": "",
          "type": "address"
        }
      ],
      "name": "userHashes",
      "outputs": [
        {
          "internalType": "string",
          "name": "dataHash",
          "type": "string"
        },
        {
          "internalType": "uint256",
          "name": "timestamp",
          "type": "uint256"
        }
      ],
      "stateMutability": "view",
      "type": "function"
    }
  ],
  "bytecode": "0x6080604052348015600f57600080fd5b5061097f8061001f6000396000f3fe608060405234801561001057600080fd5b50600436106100415760003560e01c80631da0b8fc1461004657806371dc61cb14610077578063c3cfe4a114610093575b600080fd5b610060600480360381019061005b91906103c5565b6100c4565b60405161006e92919061049b565b60405180910390f35b610091600480360381019061008c9190610600565b6101e0565b005b6100ad60048036038101906100a891906103c5565b6102a7565b6040516100bb92919061049b565b60405180910390f35b606060008060008473ffffffffffffffffffffffffffffffffffffffff1673ffffffffffffffffffffffffffffffffffffffff1681526020019081526020016000206000016000808573ffffffffffffffffffffffffffffffffffffffff1673ffffffffffffffffffffffffffffffffffffffff1681526020019081526020016000206001015481805461015790610678565b80601f016020809104026020016040519081016040528092919081815260200182805461018390610678565b80156101d05780601f106101a5576101008083540402835291602001916101d0565b820191906000526020600020905b8154815290600101906020018083116101b357829003601f168201915b5050505050915091509150915091565b6040518060400160405280828152602001428152506000803373ffffffffffffffffffffffffffffffffffffffff1673ffffffffffffffffffffffffffffffffffffffff16815260200190815260200160002060008201518160000190816102489190610855565b50602082015181600101559050503373ffffffffffffffffffffffffffffffffffffffff167f64e6e76f95f944072b8d2f4480943e67dcfa32fcda603d3f231a8213489e97758260405161029c9190610927565b60405180910390a250565b60006020528060005260406000206000915090508060000180546102ca90610678565b80601f01602080910402602001604051908101604052809291908181526020018280546102f690610678565b80156103435780601f1061031857610100808354040283529160200191610343565b820191906000526020600020905b81548152906001019060200180831161032657829003601f168201915b5050505050908060010154905082565b6000604051905090565b600080fd5b600080fd5b600073ffffffffffffffffffffffffffffffffffffffff82169050919050565b600061039282610367565b9050919050565b6103a281610387565b81146103ad57600080fd5b50565b6000813590506103bf81610399565b92915050565b6000602082840312156103db576103da61035d565b5b60006103e9848285016103b0565b91505092915050565b600081519050919050565b600082825260208201905092915050565b60005b8381101561042c578082015181840152602081019050610411565b60008484015250505050565b6000601f19601f8301169050919050565b6000610454826103f2565b61045e81856103fd565b935061046e81856020860161040e565b61047781610438565b840191505092915050565b6000819050919050565b61049581610482565b82525050565b600060408201905081810360008301526104b58185610449565b90506104c4602083018461048c565b9392505050565b600080fd5b600080fd5b7f4e487b7100000000000000000000000000000000000000000000000000000000600052604160045260246000fd5b61050d82610438565b810181811067ffffffffffffffff8211171561052c5761052b6104d5565b5b80604052505050565b600061053f610353565b905061054b8282610504565b919050565b600067ffffffffffffffff82111561056b5761056a6104d5565b5b61057482610438565b9050602081019050919050565b82818337600083830152505050565b60006105a361059e84610550565b610535565b9050828152602081018484840111156105bf576105be6104d0565b5b6105ca848285610581565b509392505050565b600082601f8301126105e7576105e66104cb565b5b81356105f7848260208601610590565b91505092915050565b6000602082840312156106165761061561035d565b5b600082013567ffffffffffffffff81111561063457610633610362565b5b610640848285016105d2565b91505092915050565b7f4e487b7100000000000000000000000000000000000000000000000000000000600052602260045260246000fd5b6000600282049050600182168061069057607f821691505b6020821081036106a3576106a2610649565b5b50919050565b60008190508160005260206000209050919050565b60006020601f8301049050919050565b600082821b905092915050565b60006008830261070b7fffffffffffffffffffffffffffffffffffffffffffffffffffffffffffffffff826106ce565b61071586836106ce565b95508019841693508086168417925050509392505050565b6000819050919050565b600061075261074d61074884610482565b61072d565b610482565b9050919050565b6000819050919050565b61076c83610737565b61078061077882610759565b8484546106db565b825550505050565b600090565b610795610788565b6107a0818484610763565b505050565b5b818110156107c4576107b960008261078d565b6001810190506107a6565b5050565b601f821115610809576107da816106a9565b6107e3846106be565b810160208510156107f2578190505b6108066107fe856106be565b8301826107a5565b50505b505050565b600082821c905092915050565b600061082c6000198460080261080e565b1980831691505092915050565b6000610845838361081b565b9150826002028217905092915050565b61085e826103f2565b67ffffffffffffffff811115610877576108766104d5565b5b6108818254610678565b61088c8282856107c8565b600060209050601f8311600181146108bf57600084156108ad578287015190505b6108b78582610839565b86555061091f565b601f1984166108cd866106a9565b60005b828110156108f5578489015182556001820191506020850194506020810190506108d0565b86831015610912578489015161090e601f89168261081b565b8355505b6001600288020188555050505b505050505050565b600060208201905081810360008301526109418184610449565b90509291505056fea26469706673582212207a4c85a3f4092e9a95cccd1dbc47b7891b2f4f10130bc642fdac7b8b01958f6664736f6c634300081c0033",
  "linkReferences": {},
  "deployedLinkReferences": {}
}