{
  "_format": "hh-sol-artifact-1",
  "contractName": "UserRegistry",
  "sourceName": "contracts/UserRegistry.sol",
  "abi": [
    {
      "anonymous": false,
      "inputs": [
        {
          "indexed": true,
          "internalType": "address",
          "name": "user",
          "type": "address"
        },
        {
          "indexed": false,
          "internalType": "string",
          "name": "emailHash",
          "type": "string"
        }
      ],
      "name": "UserRegistered",
      "type": "event"
    },
    {
      "inputs": [
        {
          "internalType": "address",
          "name": "user",
          "type": "address"
        }
      ],
      "name": "getUser",
      "outputs": [
        {
          "components": [
            {
              "internalType": "string",
              "name": "emailHash",
              "type": "string"
            },
            {
              "internalType": "string",
              "name": "metadata",
              "type": "string"
            }
          ],
          "internalType": "struct UserRegistry.User",
          "name": "",
          "type": "tuple"
        }
      ],
      "stateMutability": "view",
      "type": "function"
    },
    {
      "inputs": [
        {
          "internalType": "string",
          "name": "emailHash",
          "type": "string"
        },
        {
          "internalType": "string",
          "name": "metadata",
          "type": "string"
        }
      ],
      "name": "registerUser",
      "outputs": [],
      "stateMutability": "nonpayable",
      "type": "function"
    },
    {
      "inputs": [
        {
          "internalType": "address",
          "name": "",
          "type": "address"
        }
      ],
      "name": "users",
      "outputs": [
        {
          "internalType": "string",
          "name": "emailHash",
          "type": "string"
        },
        {
          "internalType": "string",
          "name": "metadata",
          "type": "string"
        }
      ],
      "stateMutability": "view",
      "type": "function"
    }
  ],
  "bytecode": "0x6080604052348015600f57600080fd5b50610c608061001f6000396000f3fe608060405234801561001057600080fd5b50600436106100415760003560e01c80631d2e4afd146100465780636f77926b14610062578063a87430ba14610092575b600080fd5b610060600480360381019061005b919061064b565b6100c3565b005b61007c60048036038101906100779190610721565b610227565b6040516100899190610811565b60405180910390f35b6100ac60048036038101906100a79190610721565b6103a3565b6040516100ba92919061087d565b60405180910390f35b60008060003373ffffffffffffffffffffffffffffffffffffffff1673ffffffffffffffffffffffffffffffffffffffff1681526020019081526020016000206000018054610111906108e3565b905014610153576040517f08c379a000000000000000000000000000000000000000000000000000000000815260040161014a90610960565b60405180910390fd5b6040518060400160405280838152602001828152506000803373ffffffffffffffffffffffffffffffffffffffff1673ffffffffffffffffffffffffffffffffffffffff16815260200190815260200160002060008201518160000190816101bb9190610b36565b5060208201518160010190816101d19190610b36565b509050503373ffffffffffffffffffffffffffffffffffffffff167f48cac28ad4dc618e15f4c2dd5e97751182f166de97b25618318b2112aa951a2f8360405161021b9190610c08565b60405180910390a25050565b61022f6104d7565b6000808373ffffffffffffffffffffffffffffffffffffffff1673ffffffffffffffffffffffffffffffffffffffff168152602001908152602001600020604051806040016040529081600082018054610288906108e3565b80601f01602080910402602001604051908101604052809291908181526020018280546102b4906108e3565b80156103015780601f106102d657610100808354040283529160200191610301565b820191906000526020600020905b8154815290600101906020018083116102e457829003601f168201915b5050505050815260200160018201805461031a906108e3565b80601f0160208091040260200160405190810160405280929190818152602001828054610346906108e3565b80156103935780601f1061036857610100808354040283529160200191610393565b820191906000526020600020905b81548152906001019060200180831161037657829003601f168201915b5050505050815250509050919050565b60006020528060005260406000206000915090508060000180546103c6906108e3565b80601f01602080910402602001604051908101604052809291908181526020018280546103f2906108e3565b801561043f5780601f106104145761010080835404028352916020019161043f565b820191906000526020600020905b81548152906001019060200180831161042257829003601f168201915b505050505090806001018054610454906108e3565b80601f0160208091040260200160405190810160405280929190818152602001828054610480906108e3565b80156104cd5780601f106104a2576101008083540402835291602001916104cd565b820191906000526020600020905b8154815290600101906020018083116104b057829003601f168201915b5050505050905082565b604051806040016040528060608152602001606081525090565b6000604051905090565b600080fd5b600080fd5b600080fd5b600080fd5b6000601f19601f8301169050919050565b7f4e487b7100000000000000000000000000000000000000000000000000000000600052604160045260246000fd5b6105588261050f565b810181811067ffffffffffffffff8211171561057757610576610520565b5b80604052505050565b600061058a6104f1565b9050610596828261054f565b919050565b600067ffffffffffffffff8211156105b6576105b5610520565b5b6105bf8261050f565b9050602081019050919050565b82818337600083830152505050565b60006105ee6105e98461059b565b610580565b90508281526020810184848401111561060a5761060961050a565b5b6106158482856105cc565b509392505050565b600082601f83011261063257610631610505565b5b81356106428482602086016105db565b91505092915050565b60008060408385031215610662576106616104fb565b5b600083013567ffffffffffffffff8111156106805761067f610500565b5b61068c8582860161061d565b925050602083013567ffffffffffffffff8111156106ad576106ac610500565b5b6106b98582860161061d565b9150509250929050565b600073ffffffffffffffffffffffffffffffffffffffff82169050919050565b60006106ee826106c3565b9050919050565b6106fe816106e3565b811461070957600080fd5b50565b60008135905061071b816106f5565b92915050565b600060208284031215610737576107366104fb565b5b60006107458482850161070c565b91505092915050565b600081519050919050565b600082825260208201905092915050565b60005b8381101561078857808201518184015260208101905061076d565b60008484015250505050565b600061079f8261074e565b6107a98185610759565b93506107b981856020860161076a565b6107c28161050f565b840191505092915050565b600060408301600083015184820360008601526107ea8282610794565b915050602083015184820360208601526108048282610794565b9150508091505092915050565b6000602082019050818103600083015261082b81846107cd565b905092915050565b600082825260208201905092915050565b600061084f8261074e565b6108598185610833565b935061086981856020860161076a565b6108728161050f565b840191505092915050565b600060408201905081810360008301526108978185610844565b905081810360208301526108ab8184610844565b90509392505050565b7f4e487b7100000000000000000000000000000000000000000000000000000000600052602260045260246000fd5b600060028204905060018216806108fb57607f821691505b60208210810361090e5761090d6108b4565b5b50919050565b7f5573657220616c72656164792072656769737465726564000000000000000000600082015250565b600061094a601783610833565b915061095582610914565b602082019050919050565b600060208201905081810360008301526109798161093d565b9050919050565b60008190508160005260206000209050919050565b60006020601f8301049050919050565b600082821b905092915050565b6000600883026109e27fffffffffffffffffffffffffffffffffffffffffffffffffffffffffffffffff826109a5565b6109ec86836109a5565b95508019841693508086168417925050509392505050565b6000819050919050565b6000819050919050565b6000610a33610a2e610a2984610a04565b610a0e565b610a04565b9050919050565b6000819050919050565b610a4d83610a18565b610a61610a5982610a3a565b8484546109b2565b825550505050565b600090565b610a76610a69565b610a81818484610a44565b505050565b5b81811015610aa557610a9a600082610a6e565b600181019050610a87565b5050565b601f821115610aea57610abb81610980565b610ac484610995565b81016020851015610ad3578190505b610ae7610adf85610995565b830182610a86565b50505b505050565b600082821c905092915050565b6000610b0d60001984600802610aef565b1980831691505092915050565b6000610b268383610afc565b9150826002028217905092915050565b610b3f8261074e565b67ffffffffffffffff811115610b5857610b57610520565b5b610b6282546108e3565b610b6d828285610aa9565b600060209050601f831160018114610ba05760008415610b8e578287015190505b610b988582610b1a565b865550610c00565b601f198416610bae86610980565b60005b82811015610bd657848901518255600182019150602085019450602081019050610bb1565b86831015610bf35784890151610bef601f891682610afc565b8355505b6001600288020188555050505b505050505050565b60006020820190508181036000830152610c228184610844565b90509291505056fea264697066735822122001ef996a53cf676b73192427e1ef3831cc6326dd10cd15737001f6b7151d4cf664736f6c634300081c0033",
  "linkReferences": {},
  "deployedLinkReferences": {}
}